{
  "_format": "hh-sol-artifact-1",
  "contractName": "EnergyMarketplace",
  "sourceName": "src/contracts/EnergyMarketplace.sol",
  "abi": [
    {
      "inputs": [],
      "stateMutability": "nonpayable",
      "type": "constructor"
    },
    {
      "anonymous": false,
      "inputs": [
        {
          "indexed": true,
          "internalType": "address",
          "name": "owner",
          "type": "address"
        },
        {
          "indexed": true,
          "internalType": "address",
          "name": "approved",
          "type": "address"
        },
        {
          "indexed": true,
          "internalType": "uint256",
          "name": "tokenId",
          "type": "uint256"
        }
      ],
      "name": "Approval",
      "type": "event"
    },
    {
      "anonymous": false,
      "inputs": [
        {
          "indexed": true,
          "internalType": "address",
          "name": "owner",
          "type": "address"
        },
        {
          "indexed": true,
          "internalType": "address",
          "name": "operator",
          "type": "address"
        },
        {
          "indexed": false,
          "internalType": "bool",
          "name": "approved",
          "type": "bool"
        }
      ],
      "name": "ApprovalForAll",
      "type": "event"
    },
    {
      "anonymous": false,
      "inputs": [
        {
          "indexed": true,
          "internalType": "address",
          "name": "previousOwner",
          "type": "address"
        },
        {
          "indexed": true,
          "internalType": "address",
          "name": "newOwner",
          "type": "address"
        }
      ],
      "name": "OwnershipTransferred",
      "type": "event"
    },
    {
      "anonymous": false,
      "inputs": [
        {
          "indexed": true,
          "internalType": "uint256",
          "name": "packageId",
          "type": "uint256"
        }
      ],
      "name": "PackageCancelled",
      "type": "event"
    },
    {
      "anonymous": false,
      "inputs": [
        {
          "indexed": true,
          "internalType": "uint256",
          "name": "packageId",
          "type": "uint256"
        },
        {
          "indexed": true,
          "internalType": "address",
          "name": "seller",
          "type": "address"
        },
        {
          "indexed": false,
          "internalType": "uint256",
          "name": "price",
          "type": "uint256"
        }
      ],
      "name": "PackageListed",
      "type": "event"
    },
    {
      "anonymous": false,
      "inputs": [
        {
          "indexed": true,
          "internalType": "uint256",
          "name": "packageId",
          "type": "uint256"
        },
        {
          "indexed": true,
          "internalType": "address",
          "name": "seller",
          "type": "address"
        },
        {
          "indexed": true,
          "internalType": "address",
          "name": "buyer",
          "type": "address"
        },
        {
          "indexed": false,
          "internalType": "uint256",
          "name": "price",
          "type": "uint256"
        }
      ],
      "name": "PackageSold",
      "type": "event"
    },
    {
      "anonymous": false,
      "inputs": [
        {
          "indexed": true,
          "internalType": "uint256",
          "name": "packageId",
          "type": "uint256"
        },
        {
          "indexed": false,
          "internalType": "uint256",
          "name": "newPrice",
          "type": "uint256"
        }
      ],
      "name": "PackageUpdated",
      "type": "event"
    },
    {
      "anonymous": false,
      "inputs": [
        {
          "indexed": true,
          "internalType": "address",
          "name": "from",
          "type": "address"
        },
        {
          "indexed": true,
          "internalType": "address",
          "name": "to",
          "type": "address"
        },
        {
          "indexed": true,
          "internalType": "uint256",
          "name": "tokenId",
          "type": "uint256"
        }
      ],
      "name": "Transfer",
      "type": "event"
    },
    {
      "inputs": [
        {
          "internalType": "address",
          "name": "to",
          "type": "address"
        },
        {
          "internalType": "uint256",
          "name": "tokenId",
          "type": "uint256"
        }
      ],
      "name": "approve",
      "outputs": [],
      "stateMutability": "nonpayable",
      "type": "function"
    },
    {
      "inputs": [
        {
          "internalType": "address",
          "name": "owner",
          "type": "address"
        }
      ],
      "name": "balanceOf",
      "outputs": [
        {
          "internalType": "uint256",
          "name": "",
          "type": "uint256"
        }
      ],
      "stateMutability": "view",
      "type": "function"
    },
    {
      "inputs": [
        {
          "internalType": "uint256",
          "name": "packageId",
          "type": "uint256"
        }
      ],
      "name": "buyPackage",
      "outputs": [],
      "stateMutability": "payable",
      "type": "function"
    },
    {
      "inputs": [
        {
          "internalType": "uint256",
          "name": "packageId",
          "type": "uint256"
        }
      ],
      "name": "cancelPackage",
      "outputs": [],
      "stateMutability": "nonpayable",
      "type": "function"
    },
    {
      "inputs": [],
      "name": "getActivePackages",
      "outputs": [
        {
          "internalType": "uint256[]",
          "name": "",
          "type": "uint256[]"
        }
      ],
      "stateMutability": "view",
      "type": "function"
    },
    {
      "inputs": [
        {
          "internalType": "uint256",
          "name": "tokenId",
          "type": "uint256"
        }
      ],
      "name": "getApproved",
      "outputs": [
        {
          "internalType": "address",
          "name": "",
          "type": "address"
        }
      ],
      "stateMutability": "view",
      "type": "function"
    },
    {
      "inputs": [
        {
          "internalType": "uint256",
          "name": "packageId",
          "type": "uint256"
        }
      ],
      "name": "getPackage",
      "outputs": [
        {
          "internalType": "address",
          "name": "seller",
          "type": "address"
        },
        {
          "internalType": "uint256",
          "name": "price",
          "type": "uint256"
        },
        {
          "internalType": "uint256",
          "name": "energyAmount",
          "type": "uint256"
        },
        {
          "internalType": "bool",
          "name": "renewable",
          "type": "bool"
        },
        {
          "internalType": "uint256",
          "name": "validUntil",
          "type": "uint256"
        },
        {
          "internalType": "string",
          "name": "optimizationMethod",
          "type": "string"
        },
        {
          "internalType": "bool",
          "name": "active",
          "type": "bool"
        }
      ],
      "stateMutability": "view",
      "type": "function"
    },
    {
      "inputs": [
        {
          "internalType": "address",
          "name": "owner",
          "type": "address"
        },
        {
          "internalType": "address",
          "name": "operator",
          "type": "address"
        }
      ],
      "name": "isApprovedForAll",
      "outputs": [
        {
          "internalType": "bool",
          "name": "",
          "type": "bool"
        }
      ],
      "stateMutability": "view",
      "type": "function"
    },
    {
      "inputs": [
        {
          "internalType": "uint256",
          "name": "price",
          "type": "uint256"
        },
        {
          "internalType": "uint256",
          "name": "energyAmount",
          "type": "uint256"
        },
        {
          "internalType": "bool",
          "name": "renewable",
          "type": "bool"
        },
        {
          "internalType": "uint256",
          "name": "validityPeriod",
          "type": "uint256"
        },
        {
          "internalType": "string",
          "name": "optimizationMethod",
          "type": "string"
        }
      ],
      "name": "listPackage",
      "outputs": [
        {
          "internalType": "uint256",
          "name": "",
          "type": "uint256"
        }
      ],
      "stateMutability": "nonpayable",
      "type": "function"
    },
    {
      "inputs": [],
      "name": "name",
      "outputs": [
        {
          "internalType": "string",
          "name": "",
          "type": "string"
        }
      ],
      "stateMutability": "view",
      "type": "function"
    },
    {
      "inputs": [],
      "name": "owner",
      "outputs": [
        {
          "internalType": "address",
          "name": "",
          "type": "address"
        }
      ],
      "stateMutability": "view",
      "type": "function"
    },
    {
      "inputs": [
        {
          "internalType": "uint256",
          "name": "tokenId",
          "type": "uint256"
        }
      ],
      "name": "ownerOf",
      "outputs": [
        {
          "internalType": "address",
          "name": "",
          "type": "address"
        }
      ],
      "stateMutability": "view",
      "type": "function"
    },
    {
      "inputs": [
        {
          "internalType": "uint256",
          "name": "",
          "type": "uint256"
        }
      ],
      "name": "packages",
      "outputs": [
        {
          "internalType": "uint256",
          "name": "id",
          "type": "uint256"
        },
        {
          "internalType": "address",
          "name": "seller",
          "type": "address"
        },
        {
          "internalType": "uint256",
          "name": "price",
          "type": "uint256"
        },
        {
          "internalType": "uint256",
          "name": "energyAmount",
          "type": "uint256"
        },
        {
          "internalType": "bool",
          "name": "renewable",
          "type": "bool"
        },
        {
          "internalType": "uint256",
          "name": "validUntil",
          "type": "uint256"
        },
        {
          "internalType": "string",
          "name": "optimizationMethod",
          "type": "string"
        },
        {
          "internalType": "bool",
          "name": "active",
          "type": "bool"
        }
      ],
      "stateMutability": "view",
      "type": "function"
    },
    {
      "inputs": [],
      "name": "renounceOwnership",
      "outputs": [],
      "stateMutability": "nonpayable",
      "type": "function"
    },
    {
      "inputs": [
        {
          "internalType": "address",
          "name": "from",
          "type": "address"
        },
        {
          "internalType": "address",
          "name": "to",
          "type": "address"
        },
        {
          "internalType": "uint256",
          "name": "tokenId",
          "type": "uint256"
        }
      ],
      "name": "safeTransferFrom",
      "outputs": [],
      "stateMutability": "nonpayable",
      "type": "function"
    },
    {
      "inputs": [
        {
          "internalType": "address",
          "name": "from",
          "type": "address"
        },
        {
          "internalType": "address",
          "name": "to",
          "type": "address"
        },
        {
          "internalType": "uint256",
          "name": "tokenId",
          "type": "uint256"
        },
        {
          "internalType": "bytes",
          "name": "data",
          "type": "bytes"
        }
      ],
      "name": "safeTransferFrom",
      "outputs": [],
      "stateMutability": "nonpayable",
      "type": "function"
    },
    {
      "inputs": [
        {
          "internalType": "address",
          "name": "operator",
          "type": "address"
        },
        {
          "internalType": "bool",
          "name": "approved",
          "type": "bool"
        }
      ],
      "name": "setApprovalForAll",
      "outputs": [],
      "stateMutability": "nonpayable",
      "type": "function"
    },
    {
      "inputs": [
        {
          "internalType": "bytes4",
          "name": "interfaceId",
          "type": "bytes4"
        }
      ],
      "name": "supportsInterface",
      "outputs": [
        {
          "internalType": "bool",
          "name": "",
          "type": "bool"
        }
      ],
      "stateMutability": "view",
      "type": "function"
    },
    {
      "inputs": [],
      "name": "symbol",
      "outputs": [
        {
          "internalType": "string",
          "name": "",
          "type": "string"
        }
      ],
      "stateMutability": "view",
      "type": "function"
    },
    {
      "inputs": [
        {
          "internalType": "uint256",
          "name": "tokenId",
          "type": "uint256"
        }
      ],
      "name": "tokenURI",
      "outputs": [
        {
          "internalType": "string",
          "name": "",
          "type": "string"
        }
      ],
      "stateMutability": "view",
      "type": "function"
    },
    {
      "inputs": [],
      "name": "totalPackages",
      "outputs": [
        {
          "internalType": "uint256",
          "name": "",
          "type": "uint256"
        }
      ],
      "stateMutability": "view",
      "type": "function"
    },
    {
      "inputs": [
        {
          "internalType": "address",
          "name": "from",
          "type": "address"
        },
        {
          "internalType": "address",
          "name": "to",
          "type": "address"
        },
        {
          "internalType": "uint256",
          "name": "tokenId",
          "type": "uint256"
        }
      ],
      "name": "transferFrom",
      "outputs": [],
      "stateMutability": "nonpayable",
      "type": "function"
    },
    {
      "inputs": [
        {
          "internalType": "address",
          "name": "newOwner",
          "type": "address"
        }
      ],
      "name": "transferOwnership",
      "outputs": [],
      "stateMutability": "nonpayable",
      "type": "function"
    },
    {
      "inputs": [
        {
          "internalType": "uint256",
          "name": "packageId",
          "type": "uint256"
        },
        {
          "internalType": "uint256",
          "name": "newPrice",
          "type": "uint256"
        }
      ],
      "name": "updatePackagePrice",
      "outputs": [],
      "stateMutability": "nonpayable",
      "type": "function"
    }
  ],
  "bytecode": "0x60806040523480156200001157600080fd5b506040518060400160405280600d81526020017f456e657267795061636b616765000000000000000000000000000000000000008152506040518060400160405280600481526020017f454e52470000000000000000000000000000000000000000000000000000000081525081600090816200008f91906200041a565b508060019081620000a191906200041a565b5050506001600681905550620000cc620000c0620000d260201b60201c565b620000da60201b60201c565b62000501565b600033905090565b6000600760009054906101000a900473ffffffffffffffffffffffffffffffffffffffff16905081600760006101000a81548173ffffffffffffffffffffffffffffffffffffffff021916908373ffffffffffffffffffffffffffffffffffffffff1602179055508173ffffffffffffffffffffffffffffffffffffffff168173ffffffffffffffffffffffffffffffffffffffff167f8be0079c531659141344cd1fd0a4f28419497f9722a3daafe3b4186f6b6457e060405160405180910390a35050565b600081519050919050565b7f4e487b7100000000000000000000000000000000000000000000000000000000600052604160045260246000fd5b7f4e487b7100000000000000000000000000000000000000000000000000000000600052602260045260246000fd5b600060028204905060018216806200022257607f821691505b602082108103620002385762000237620001da565b5b50919050565b60008190508160005260206000209050919050565b60006020601f8301049050919050565b600082821b905092915050565b600060088302620002a27fffffffffffffffffffffffffffffffffffffffffffffffffffffffffffffffff8262000263565b620002ae868362000263565b95508019841693508086168417925050509392505050565b6000819050919050565b6000819050919050565b6000620002fb620002f5620002ef84620002c6565b620002d0565b620002c6565b9050919050565b6000819050919050565b6200031783620002da565b6200032f620003268262000302565b84845462000270565b825550505050565b600090565b6200034662000337565b620003538184846200030c565b505050565b5b818110156200037b576200036f6000826200033c565b60018101905062000359565b5050565b601f821115620003ca5762000394816200023e565b6200039f8462000253565b81016020851015620003af578190505b620003c7620003be8562000253565b83018262000358565b50505b505050565b600082821c905092915050565b6000620003ef60001984600802620003cf565b1980831691505092915050565b60006200040a8383620003dc565b9150826002028217905092915050565b6200042582620001a0565b67ffffffffffffffff811115620004415762000440620001ab565b5b6200044d825462000209565b6200045a8282856200037f565b600060209050601f8311600181146200049257600084156200047d578287015190505b620004898582620003fc565b865550620004f9565b601f198416620004a2866200023e565b60005b82811015620004cc57848901518255600182019150602085019450602081019050620004a5565b86831015620004ec5784890151620004e8601f891682620003dc565b8355505b6001600288020188555050505b505050505050565b61427080620005116000396000f3fe60806040526004361061014b5760003560e01c806395d89b41116100b6578063bd5ec8ef1161006f578063bd5ec8ef14610499578063c216212a146104c2578063c87b56dd14610506578063e985e9c514610543578063f1542b9414610580578063f2fde38b146105ab5761014b565b806395d89b41146103805780639f13191d146103ab578063a22cb465146103e8578063ab69523b14610411578063b88d4fde1461042d578063b99dfe18146104565761014b565b80636352211e116101085780636352211e146102705780636d445b55146102ad57806370a08231146102d6578063715018a6146103135780637a2a3b5e1461032a5780638da5cb5b146103555761014b565b806301ffc9a71461015057806306fdde031461018d578063081812fc146101b8578063095ea7b3146101f557806323b872dd1461021e57806342842e0e14610247575b600080fd5b34801561015c57600080fd5b506101776004803603810190610172919061290b565b6105d4565b6040516101849190612953565b60405180910390f35b34801561019957600080fd5b506101a26106b6565b6040516101af91906129fe565b60405180910390f35b3480156101c457600080fd5b506101df60048036038101906101da9190612a56565b610748565b6040516101ec9190612ac4565b60405180910390f35b34801561020157600080fd5b5061021c60048036038101906102179190612b0b565b61078e565b005b34801561022a57600080fd5b5061024560048036038101906102409190612b4b565b6108a5565b005b34801561025357600080fd5b5061026e60048036038101906102699190612b4b565b610905565b005b34801561027c57600080fd5b5061029760048036038101906102929190612a56565b610925565b6040516102a49190612ac4565b60405180910390f35b3480156102b957600080fd5b506102d460048036038101906102cf9190612a56565b6109ab565b005b3480156102e257600080fd5b506102fd60048036038101906102f89190612b9e565b610ab6565b60405161030a9190612bda565b60405180910390f35b34801561031f57600080fd5b50610328610b6d565b005b34801561033657600080fd5b5061033f610b81565b60405161034c9190612cb3565b60405180910390f35b34801561036157600080fd5b5061036a610cad565b6040516103779190612ac4565b60405180910390f35b34801561038c57600080fd5b50610395610cd7565b6040516103a291906129fe565b60405180910390f35b3480156103b757600080fd5b506103d260048036038101906103cd9190612e36565b610d69565b6040516103df9190612bda565b60405180910390f35b3480156103f457600080fd5b5061040f600480360381019061040a9190612ecd565b611033565b005b61042b60048036038101906104269190612a56565b611049565b005b34801561043957600080fd5b50610454600480360381019061044f9190612fae565b611348565b005b34801561046257600080fd5b5061047d60048036038101906104789190612a56565b6113aa565b6040516104909796959493929190613031565b60405180910390f35b3480156104a557600080fd5b506104c060048036038101906104bb91906130a7565b61155b565b005b3480156104ce57600080fd5b506104e960048036038101906104e49190612a56565b6116a1565b6040516104fd9897969594939291906130e7565b60405180910390f35b34801561051257600080fd5b5061052d60048036038101906105289190612a56565b6117ab565b60405161053a91906129fe565b60405180910390f35b34801561054f57600080fd5b5061056a6004803603810190610565919061316c565b611813565b6040516105779190612953565b60405180910390f35b34801561058c57600080fd5b506105956118a7565b6040516105a29190612bda565b60405180910390f35b3480156105b757600080fd5b506105d260048036038101906105cd9190612b9e565b6118b1565b005b60007f80ac58cd000000000000000000000000000000000000000000000000000000007bffffffffffffffffffffffffffffffffffffffffffffffffffffffff1916827bffffffffffffffffffffffffffffffffffffffffffffffffffffffff1916148061069f57507f5b5e139f000000000000000000000000000000000000000000000000000000007bffffffffffffffffffffffffffffffffffffffffffffffffffffffff1916827bffffffffffffffffffffffffffffffffffffffffffffffffffffffff1916145b806106af57506106ae82611934565b5b9050919050565b6060600080546106c5906131db565b80601f01602080910402602001604051908101604052809291908181526020018280546106f1906131db565b801561073e5780601f106107135761010080835404028352916020019161073e565b820191906000526020600020905b81548152906001019060200180831161072157829003601f168201915b5050505050905090565b60006107538261199e565b6004600083815260200190815260200160002060009054906101000a900473ffffffffffffffffffffffffffffffffffffffff169050919050565b600061079982610925565b90508073ffffffffffffffffffffffffffffffffffffffff168373ffffffffffffffffffffffffffffffffffffffff1603610809576040517f08c379a00000000000000000000000000000000000000000000000000000000081526004016108009061327e565b60405180910390fd5b8073ffffffffffffffffffffffffffffffffffffffff166108286119e9565b73ffffffffffffffffffffffffffffffffffffffff1614806108575750610856816108516119e9565b611813565b5b610896576040517f08c379a000000000000000000000000000000000000000000000000000000000815260040161088d90613310565b60405180910390fd5b6108a083836119f1565b505050565b6108b66108b06119e9565b82611aaa565b6108f5576040517f08c379a00000000000000000000000000000000000000000000000000000000081526004016108ec906133a2565b60405180910390fd5b610900838383611b3f565b505050565b61092083838360405180602001604052806000815250611348565b505050565b60008061093183611e38565b9050600073ffffffffffffffffffffffffffffffffffffffff168173ffffffffffffffffffffffffffffffffffffffff16036109a2576040517f08c379a00000000000000000000000000000000000000000000000000000000081526004016109999061340e565b60405180910390fd5b80915050919050565b6109b53382611aaa565b6109f4576040517f08c379a00000000000000000000000000000000000000000000000000000000081526004016109eb9061347a565b60405180910390fd5b6008600082815260200190815260200160002060070160009054906101000a900460ff16610a57576040517f08c379a0000000000000000000000000000000000000000000000000000000008152600401610a4e906134e6565b60405180910390fd5b60006008600083815260200190815260200160002060070160006101000a81548160ff021916908315150217905550807f50d353d5298d9f9236af22f4a93e9aba72baa4fa39f7399b03ff355af8aafbe260405160405180910390a250565b60008073ffffffffffffffffffffffffffffffffffffffff168273ffffffffffffffffffffffffffffffffffffffff1603610b26576040517f08c379a0000000000000000000000000000000000000000000000000000000008152600401610b1d90613578565b60405180910390fd5b600360008373ffffffffffffffffffffffffffffffffffffffff1673ffffffffffffffffffffffffffffffffffffffff168152602001908152602001600020549050919050565b610b75611e75565b610b7f6000611ef3565b565b60606000805b600954811015610bdc576008600082815260200190815260200160002060070160009054906101000a900460ff1615610bc9578180610bc5906135c7565b9250505b8080610bd4906135c7565b915050610b87565b5060008167ffffffffffffffff811115610bf957610bf8612d0b565b5b604051908082528060200260200182016040528015610c275781602001602082028036833780820191505090505b5090506000805b600954811015610ca3576008600082815260200190815260200160002060070160009054906101000a900460ff1615610c905780838381518110610c7557610c7461360f565b5b6020026020010181815250508180610c8c906135c7565b9250505b8080610c9b906135c7565b915050610c2e565b5081935050505090565b6000600760009054906101000a900473ffffffffffffffffffffffffffffffffffffffff16905090565b606060018054610ce6906131db565b80601f0160208091040260200160405190810160405280929190818152602001828054610d12906131db565b8015610d5f5780601f10610d3457610100808354040283529160200191610d5f565b820191906000526020600020905b815481529060010190602001808311610d4257829003601f168201915b5050505050905090565b6000808611610dad576040517f08c379a0000000000000000000000000000000000000000000000000000000008152600401610da49061368a565b60405180910390fd5b60008511610df0576040517f08c379a0000000000000000000000000000000000000000000000000000000008152600401610de79061371c565b60405180910390fd5b60008311610e33576040517f08c379a0000000000000000000000000000000000000000000000000000000008152600401610e2a906137ae565b60405180910390fd5b6000825111610e77576040517f08c379a0000000000000000000000000000000000000000000000000000000008152600401610e6e9061381a565b60405180910390fd5b600060096000815480929190610e8c906135c7565b9190505590506040518061010001604052808281526020013373ffffffffffffffffffffffffffffffffffffffff16815260200188815260200187815260200186151581526020018542610ee0919061383a565b815260200184815260200160011515815250600860008381526020019081526020016000206000820151816000015560208201518160010160006101000a81548173ffffffffffffffffffffffffffffffffffffffff021916908373ffffffffffffffffffffffffffffffffffffffff160217905550604082015181600201556060820151816003015560808201518160040160006101000a81548160ff02191690831515021790555060a0820151816005015560c0820151816006019081610fa99190613a1a565b5060e08201518160070160006101000a81548160ff021916908315150217905550905050610fd73382611fb9565b3373ffffffffffffffffffffffffffffffffffffffff16817f7bab68b7d00a6ea004ba8d3c911e4aaf21e253abb10d62e0f34de5fc7766b4118960405161101e9190612bda565b60405180910390a38091505095945050505050565b61104561103e6119e9565b8383611fd7565b5050565b611051612143565b60006008600083815260200190815260200160002090508060070160009054906101000a900460ff166110b9576040517f08c379a00000000000000000000000000000000000000000000000000000000081526004016110b0906134e6565b60405180910390fd5b806005015442106110ff576040517f08c379a00000000000000000000000000000000000000000000000000000000081526004016110f690613b38565b60405180910390fd5b8060020154341015611146576040517f08c379a000000000000000000000000000000000000000000000000000000000815260040161113d90613ba4565b60405180910390fd5b8060010160009054906101000a900473ffffffffffffffffffffffffffffffffffffffff1673ffffffffffffffffffffffffffffffffffffffff163373ffffffffffffffffffffffffffffffffffffffff16036111d8576040517f08c379a00000000000000000000000000000000000000000000000000000000081526004016111cf90613c10565b60405180910390fd5b60008160010160009054906101000a900473ffffffffffffffffffffffffffffffffffffffff16905060008260020154905060008360070160006101000a81548160ff021916908315150217905550611232823386611b3f565b8173ffffffffffffffffffffffffffffffffffffffff166108fc829081150290604051600060405180830381858888f19350505050158015611278573d6000803e3d6000fd5b50803411156112d4573373ffffffffffffffffffffffffffffffffffffffff166108fc82346112a79190613c30565b9081150290604051600060405180830381858888f193505050501580156112d2573d6000803e3d6000fd5b505b3373ffffffffffffffffffffffffffffffffffffffff168273ffffffffffffffffffffffffffffffffffffffff16857f0fc9c1e194530fb281362c3496f8ac4383663dc17c45de5e3ea8842a2a4ae775846040516113329190612bda565b60405180910390a4505050611345612192565b50565b6113596113536119e9565b83611aaa565b611398576040517f08c379a000000000000000000000000000000000000000000000000000000000815260040161138f906133a2565b60405180910390fd5b6113a48484848461219c565b50505050565b60008060008060006060600080600860008a815260200190815260200160002060405180610100016040529081600082015481526020016001820160009054906101000a900473ffffffffffffffffffffffffffffffffffffffff1673ffffffffffffffffffffffffffffffffffffffff1673ffffffffffffffffffffffffffffffffffffffff16815260200160028201548152602001600382015481526020016004820160009054906101000a900460ff161515151581526020016005820154815260200160068201805461147f906131db565b80601f01602080910402602001604051908101604052809291908181526020018280546114ab906131db565b80156114f85780601f106114cd576101008083540402835291602001916114f8565b820191906000526020600020905b8154815290600101906020018083116114db57829003601f168201915b505050505081526020016007820160009054906101000a900460ff161515151581525050905080602001518160400151826060015183608001518460a001518560c001518660e00151975097509750975097509750975050919395979092949650565b6115653383611aaa565b6115a4576040517f08c379a000000000000000000000000000000000000000000000000000000000815260040161159b9061347a565b60405180910390fd5b6008600083815260200190815260200160002060070160009054906101000a900460ff16611607576040517f08c379a00000000000000000000000000000000000000000000000000000000081526004016115fe906134e6565b60405180910390fd5b6000811161164a576040517f08c379a00000000000000000000000000000000000000000000000000000000081526004016116419061368a565b60405180910390fd5b806008600084815260200190815260200160002060020181905550817fb6b1874aebf7cbaa81c4cc57b96fc18a88610ccdcdd5b7eedf8f5a0b963f1c4a826040516116959190612bda565b60405180910390a25050565b60086020528060005260406000206000915090508060000154908060010160009054906101000a900473ffffffffffffffffffffffffffffffffffffffff16908060020154908060030154908060040160009054906101000a900460ff1690806005015490806006018054611715906131db565b80601f0160208091040260200160405190810160405280929190818152602001828054611741906131db565b801561178e5780601f106117635761010080835404028352916020019161178e565b820191906000526020600020905b81548152906001019060200180831161177157829003601f168201915b5050505050908060070160009054906101000a900460ff16905088565b60606117b68261199e565b60006117c06121f8565b905060008151116117e0576040518060200160405280600081525061180b565b806117ea8461220f565b6040516020016117fb929190613ca0565b6040516020818303038152906040525b915050919050565b6000600560008473ffffffffffffffffffffffffffffffffffffffff1673ffffffffffffffffffffffffffffffffffffffff16815260200190815260200160002060008373ffffffffffffffffffffffffffffffffffffffff1673ffffffffffffffffffffffffffffffffffffffff16815260200190815260200160002060009054906101000a900460ff16905092915050565b6000600954905090565b6118b9611e75565b600073ffffffffffffffffffffffffffffffffffffffff168173ffffffffffffffffffffffffffffffffffffffff1603611928576040517f08c379a000000000000000000000000000000000000000000000000000000000815260040161191f90613d36565b60405180910390fd5b61193181611ef3565b50565b60007f01ffc9a7000000000000000000000000000000000000000000000000000000007bffffffffffffffffffffffffffffffffffffffffffffffffffffffff1916827bffffffffffffffffffffffffffffffffffffffffffffffffffffffff1916149050919050565b6119a7816122dd565b6119e6576040517f08c379a00000000000000000000000000000000000000000000000000000000081526004016119dd9061340e565b60405180910390fd5b50565b600033905090565b816004600083815260200190815260200160002060006101000a81548173ffffffffffffffffffffffffffffffffffffffff021916908373ffffffffffffffffffffffffffffffffffffffff160217905550808273ffffffffffffffffffffffffffffffffffffffff16611a6483610925565b73ffffffffffffffffffffffffffffffffffffffff167f8c5be1e5ebec7d5bd14f71427d1e84f3dd0314c0f7b2291e5b200ac8c7c3b92560405160405180910390a45050565b600080611ab683610925565b90508073ffffffffffffffffffffffffffffffffffffffff168473ffffffffffffffffffffffffffffffffffffffff161480611af85750611af78185611813565b5b80611b3657508373ffffffffffffffffffffffffffffffffffffffff16611b1e84610748565b73ffffffffffffffffffffffffffffffffffffffff16145b91505092915050565b8273ffffffffffffffffffffffffffffffffffffffff16611b5f82610925565b73ffffffffffffffffffffffffffffffffffffffff1614611bb5576040517f08c379a0000000000000000000000000000000000000000000000000000000008152600401611bac90613dc8565b60405180910390fd5b600073ffffffffffffffffffffffffffffffffffffffff168273ffffffffffffffffffffffffffffffffffffffff1603611c24576040517f08c379a0000000000000000000000000000000000000000000000000000000008152600401611c1b90613e5a565b60405180910390fd5b611c31838383600161231e565b8273ffffffffffffffffffffffffffffffffffffffff16611c5182610925565b73ffffffffffffffffffffffffffffffffffffffff1614611ca7576040517f08c379a0000000000000000000000000000000000000000000000000000000008152600401611c9e90613dc8565b60405180910390fd5b6004600082815260200190815260200160002060006101000a81549073ffffffffffffffffffffffffffffffffffffffff02191690556001600360008573ffffffffffffffffffffffffffffffffffffffff1673ffffffffffffffffffffffffffffffffffffffff168152602001908152602001600020600082825403925050819055506001600360008473ffffffffffffffffffffffffffffffffffffffff1673ffffffffffffffffffffffffffffffffffffffff16815260200190815260200160002060008282540192505081905550816002600083815260200190815260200160002060006101000a81548173ffffffffffffffffffffffffffffffffffffffff021916908373ffffffffffffffffffffffffffffffffffffffff160217905550808273ffffffffffffffffffffffffffffffffffffffff168473ffffffffffffffffffffffffffffffffffffffff167fddf252ad1be2c89b69c2b068fc378daa952ba7f163c4a11628f55a4df523b3ef60405160405180910390a4611e338383836001612324565b505050565b60006002600083815260200190815260200160002060009054906101000a900473ffffffffffffffffffffffffffffffffffffffff169050919050565b611e7d6119e9565b73ffffffffffffffffffffffffffffffffffffffff16611e9b610cad565b73ffffffffffffffffffffffffffffffffffffffff1614611ef1576040517f08c379a0000000000000000000000000000000000000000000000000000000008152600401611ee890613ec6565b60405180910390fd5b565b6000600760009054906101000a900473ffffffffffffffffffffffffffffffffffffffff16905081600760006101000a81548173ffffffffffffffffffffffffffffffffffffffff021916908373ffffffffffffffffffffffffffffffffffffffff1602179055508173ffffffffffffffffffffffffffffffffffffffff168173ffffffffffffffffffffffffffffffffffffffff167f8be0079c531659141344cd1fd0a4f28419497f9722a3daafe3b4186f6b6457e060405160405180910390a35050565b611fd382826040518060200160405280600081525061232a565b5050565b8173ffffffffffffffffffffffffffffffffffffffff168373ffffffffffffffffffffffffffffffffffffffff1603612045576040517f08c379a000000000000000000000000000000000000000000000000000000000815260040161203c90613f32565b60405180910390fd5b80600560008573ffffffffffffffffffffffffffffffffffffffff1673ffffffffffffffffffffffffffffffffffffffff16815260200190815260200160002060008473ffffffffffffffffffffffffffffffffffffffff1673ffffffffffffffffffffffffffffffffffffffff16815260200190815260200160002060006101000a81548160ff0219169083151502179055508173ffffffffffffffffffffffffffffffffffffffff168373ffffffffffffffffffffffffffffffffffffffff167f17307eab39ab6107e8899845ad3d59bd9653f200f220920489ca2b5937696c31836040516121369190612953565b60405180910390a3505050565b600260065403612188576040517f08c379a000000000000000000000000000000000000000000000000000000000815260040161217f90613f9e565b60405180910390fd5b6002600681905550565b6001600681905550565b6121a7848484611b3f565b6121b384848484612385565b6121f2576040517f08c379a00000000000000000000000000000000000000000000000000000000081526004016121e990614030565b60405180910390fd5b50505050565b606060405180602001604052806000815250905090565b60606000600161221e8461250c565b01905060008167ffffffffffffffff81111561223d5761223c612d0b565b5b6040519080825280601f01601f19166020018201604052801561226f5781602001600182028036833780820191505090505b509050600082602001820190505b6001156122d2578080600190039150507f3031323334353637383961626364656600000000000000000000000000000000600a86061a8153600a85816122c6576122c5614050565b5b0494506000850361227d575b819350505050919050565b60008073ffffffffffffffffffffffffffffffffffffffff166122ff83611e38565b73ffffffffffffffffffffffffffffffffffffffff1614159050919050565b50505050565b50505050565b612334838361265f565b6123416000848484612385565b612380576040517f08c379a000000000000000000000000000000000000000000000000000000000815260040161237790614030565b60405180910390fd5b505050565b60006123a68473ffffffffffffffffffffffffffffffffffffffff1661287c565b156124ff578373ffffffffffffffffffffffffffffffffffffffff1663150b7a026123cf6119e9565b8786866040518563ffffffff1660e01b81526004016123f194939291906140d4565b6020604051808303816000875af192505050801561242d57506040513d601f19601f8201168201806040525081019061242a9190614135565b60015b6124af573d806000811461245d576040519150601f19603f3d011682016040523d82523d6000602084013e612462565b606091505b5060008151036124a7576040517f08c379a000000000000000000000000000000000000000000000000000000000815260040161249e90614030565b60405180910390fd5b805181602001fd5b63150b7a0260e01b7bffffffffffffffffffffffffffffffffffffffffffffffffffffffff1916817bffffffffffffffffffffffffffffffffffffffffffffffffffffffff191614915050612504565b600190505b949350505050565b600080600090507a184f03e93ff9f4daa797ed6e38ed64bf6a1f010000000000000000831061256a577a184f03e93ff9f4daa797ed6e38ed64bf6a1f01000000000000000083816125605761255f614050565b5b0492506040810190505b6d04ee2d6d415b85acef810000000083106125a7576d04ee2d6d415b85acef8100000000838161259d5761259c614050565b5b0492506020810190505b662386f26fc1000083106125d657662386f26fc1000083816125cc576125cb614050565b5b0492506010810190505b6305f5e10083106125ff576305f5e10083816125f5576125f4614050565b5b0492506008810190505b612710831061262457612710838161261a57612619614050565b5b0492506004810190505b60648310612647576064838161263d5761263c614050565b5b0492506002810190505b600a8310612656576001810190505b80915050919050565b600073ffffffffffffffffffffffffffffffffffffffff168273ffffffffffffffffffffffffffffffffffffffff16036126ce576040517f08c379a00000000000000000000000000000000000000000000000000000000081526004016126c5906141ae565b60405180910390fd5b6126d7816122dd565b15612717576040517f08c379a000000000000000000000000000000000000000000000000000000000815260040161270e9061421a565b60405180910390fd5b61272560008383600161231e565b61272e816122dd565b1561276e576040517f08c379a00000000000000000000000000000000000000000000000000000000081526004016127659061421a565b60405180910390fd5b6001600360008473ffffffffffffffffffffffffffffffffffffffff1673ffffffffffffffffffffffffffffffffffffffff16815260200190815260200160002060008282540192505081905550816002600083815260200190815260200160002060006101000a81548173ffffffffffffffffffffffffffffffffffffffff021916908373ffffffffffffffffffffffffffffffffffffffff160217905550808273ffffffffffffffffffffffffffffffffffffffff16600073ffffffffffffffffffffffffffffffffffffffff167fddf252ad1be2c89b69c2b068fc378daa952ba7f163c4a11628f55a4df523b3ef60405160405180910390a4612878600083836001612324565b5050565b6000808273ffffffffffffffffffffffffffffffffffffffff163b119050919050565b6000604051905090565b600080fd5b600080fd5b60007fffffffff0000000000000000000000000000000000000000000000000000000082169050919050565b6128e8816128b3565b81146128f357600080fd5b50565b600081359050612905816128df565b92915050565b600060208284031215612921576129206128a9565b5b600061292f848285016128f6565b91505092915050565b60008115159050919050565b61294d81612938565b82525050565b60006020820190506129686000830184612944565b92915050565b600081519050919050565b600082825260208201905092915050565b60005b838110156129a857808201518184015260208101905061298d565b60008484015250505050565b6000601f19601f8301169050919050565b60006129d08261296e565b6129da8185612979565b93506129ea81856020860161298a565b6129f3816129b4565b840191505092915050565b60006020820190508181036000830152612a1881846129c5565b905092915050565b6000819050919050565b612a3381612a20565b8114612a3e57600080fd5b50565b600081359050612a5081612a2a565b92915050565b600060208284031215612a6c57612a6b6128a9565b5b6000612a7a84828501612a41565b91505092915050565b600073ffffffffffffffffffffffffffffffffffffffff82169050919050565b6000612aae82612a83565b9050919050565b612abe81612aa3565b82525050565b6000602082019050612ad96000830184612ab5565b92915050565b612ae881612aa3565b8114612af357600080fd5b50565b600081359050612b0581612adf565b92915050565b60008060408385031215612b2257612b216128a9565b5b6000612b3085828601612af6565b9250506020612b4185828601612a41565b9150509250929050565b600080600060608486031215612b6457612b636128a9565b5b6000612b7286828701612af6565b9350506020612b8386828701612af6565b9250506040612b9486828701612a41565b9150509250925092565b600060208284031215612bb457612bb36128a9565b5b6000612bc284828501612af6565b91505092915050565b612bd481612a20565b82525050565b6000602082019050612bef6000830184612bcb565b92915050565b600081519050919050565b600082825260208201905092915050565b6000819050602082019050919050565b612c2a81612a20565b82525050565b6000612c3c8383612c21565b60208301905092915050565b6000602082019050919050565b6000612c6082612bf5565b612c6a8185612c00565b9350612c7583612c11565b8060005b83811015612ca6578151612c8d8882612c30565b9750612c9883612c48565b925050600181019050612c79565b5085935050505092915050565b60006020820190508181036000830152612ccd8184612c55565b905092915050565b612cde81612938565b8114612ce957600080fd5b50565b600081359050612cfb81612cd5565b92915050565b600080fd5b600080fd5b7f4e487b7100000000000000000000000000000000000000000000000000000000600052604160045260246000fd5b612d43826129b4565b810181811067ffffffffffffffff82111715612d6257612d61612d0b565b5b80604052505050565b6000612d7561289f565b9050612d818282612d3a565b919050565b600067ffffffffffffffff821115612da157612da0612d0b565b5b612daa826129b4565b9050602081019050919050565b82818337600083830152505050565b6000612dd9612dd484612d86565b612d6b565b905082815260208101848484011115612df557612df4612d06565b5b612e00848285612db7565b509392505050565b600082601f830112612e1d57612e1c612d01565b5b8135612e2d848260208601612dc6565b91505092915050565b600080600080600060a08688031215612e5257612e516128a9565b5b6000612e6088828901612a41565b9550506020612e7188828901612a41565b9450506040612e8288828901612cec565b9350506060612e9388828901612a41565b925050608086013567ffffffffffffffff811115612eb457612eb36128ae565b5b612ec088828901612e08565b9150509295509295909350565b60008060408385031215612ee457612ee36128a9565b5b6000612ef285828601612af6565b9250506020612f0385828601612cec565b9150509250929050565b600067ffffffffffffffff821115612f2857612f27612d0b565b5b612f31826129b4565b9050602081019050919050565b6000612f51612f4c84612f0d565b612d6b565b905082815260208101848484011115612f6d57612f6c612d06565b5b612f78848285612db7565b509392505050565b600082601f830112612f9557612f94612d01565b5b8135612fa5848260208601612f3e565b91505092915050565b60008060008060808587031215612fc857612fc76128a9565b5b6000612fd687828801612af6565b9450506020612fe787828801612af6565b9350506040612ff887828801612a41565b925050606085013567ffffffffffffffff811115613019576130186128ae565b5b61302587828801612f80565b91505092959194509250565b600060e082019050613046600083018a612ab5565b6130536020830189612bcb565b6130606040830188612bcb565b61306d6060830187612944565b61307a6080830186612bcb565b81810360a083015261308c81856129c5565b905061309b60c0830184612944565b98975050505050505050565b600080604083850312156130be576130bd6128a9565b5b60006130cc85828601612a41565b92505060206130dd85828601612a41565b9150509250929050565b6000610100820190506130fd600083018b612bcb565b61310a602083018a612ab5565b6131176040830189612bcb565b6131246060830188612bcb565b6131316080830187612944565b61313e60a0830186612bcb565b81810360c083015261315081856129c5565b905061315f60e0830184612944565b9998505050505050505050565b60008060408385031215613183576131826128a9565b5b600061319185828601612af6565b92505060206131a285828601612af6565b9150509250929050565b7f4e487b7100000000000000000000000000000000000000000000000000000000600052602260045260246000fd5b600060028204905060018216806131f357607f821691505b602082108103613206576132056131ac565b5b50919050565b7f4552433732313a20617070726f76616c20746f2063757272656e74206f776e6560008201527f7200000000000000000000000000000000000000000000000000000000000000602082015250565b6000613268602183612979565b91506132738261320c565b604082019050919050565b600060208201905081810360008301526132978161325b565b9050919050565b7f4552433732313a20617070726f76652063616c6c6572206973206e6f7420746f60008201527f6b656e206f776e6572206f7220617070726f76656420666f7220616c6c000000602082015250565b60006132fa603d83612979565b91506133058261329e565b604082019050919050565b60006020820190508181036000830152613329816132ed565b9050919050565b7f4552433732313a2063616c6c6572206973206e6f7420746f6b656e206f776e6560008201527f72206f7220617070726f76656400000000000000000000000000000000000000602082015250565b600061338c602d83612979565b915061339782613330565b604082019050919050565b600060208201905081810360008301526133bb8161337f565b9050919050565b7f4552433732313a20696e76616c696420746f6b656e2049440000000000000000600082015250565b60006133f8601883612979565b9150613403826133c2565b602082019050919050565b60006020820190508181036000830152613427816133eb565b9050919050565b7f4e6f74206f776e6572206f66207061636b616765000000000000000000000000600082015250565b6000613464601483612979565b915061346f8261342e565b602082019050919050565b6000602082019050818103600083015261349381613457565b9050919050565b7f5061636b616765206973206e6f74206163746976650000000000000000000000600082015250565b60006134d0601583612979565b91506134db8261349a565b602082019050919050565b600060208201905081810360008301526134ff816134c3565b9050919050565b7f4552433732313a2061646472657373207a65726f206973206e6f74206120766160008201527f6c6964206f776e65720000000000000000000000000000000000000000000000602082015250565b6000613562602983612979565b915061356d82613506565b604082019050919050565b6000602082019050818103600083015261359181613555565b9050919050565b7f4e487b7100000000000000000000000000000000000000000000000000000000600052601160045260246000fd5b60006135d282612a20565b91507fffffffffffffffffffffffffffffffffffffffffffffffffffffffffffffffff820361360457613603613598565b5b600182019050919050565b7f4e487b7100000000000000000000000000000000000000000000000000000000600052603260045260246000fd5b7f5072696365206d7573742062652067726561746572207468616e203000000000600082015250565b6000613674601c83612979565b915061367f8261363e565b602082019050919050565b600060208201905081810360008301526136a381613667565b9050919050565b7f456e6572677920616d6f756e74206d757374206265206772656174657220746860008201527f616e203000000000000000000000000000000000000000000000000000000000602082015250565b6000613706602483612979565b9150613711826136aa565b604082019050919050565b60006020820190508181036000830152613735816136f9565b9050919050565b7f56616c696469747920706572696f64206d75737420626520677265617465722060008201527f7468616e20300000000000000000000000000000000000000000000000000000602082015250565b6000613798602683612979565b91506137a38261373c565b604082019050919050565b600060208201905081810360008301526137c78161378b565b9050919050565b7f4f7074696d697a6174696f6e206d6574686f6420726571756972656400000000600082015250565b6000613804601c83612979565b915061380f826137ce565b602082019050919050565b60006020820190508181036000830152613833816137f7565b9050919050565b600061384582612a20565b915061385083612a20565b925082820190508082111561386857613867613598565b5b92915050565b60008190508160005260206000209050919050565b60006020601f8301049050919050565b600082821b905092915050565b6000600883026138d07fffffffffffffffffffffffffffffffffffffffffffffffffffffffffffffffff82613893565b6138da8683613893565b95508019841693508086168417925050509392505050565b6000819050919050565b600061391761391261390d84612a20565b6138f2565b612a20565b9050919050565b6000819050919050565b613931836138fc565b61394561393d8261391e565b8484546138a0565b825550505050565b600090565b61395a61394d565b613965818484613928565b505050565b5b818110156139895761397e600082613952565b60018101905061396b565b5050565b601f8211156139ce5761399f8161386e565b6139a884613883565b810160208510156139b7578190505b6139cb6139c385613883565b83018261396a565b50505b505050565b600082821c905092915050565b60006139f1600019846008026139d3565b1980831691505092915050565b6000613a0a83836139e0565b9150826002028217905092915050565b613a238261296e565b67ffffffffffffffff811115613a3c57613a3b612d0b565b5b613a4682546131db565b613a5182828561398d565b600060209050601f831160018114613a845760008415613a72578287015190505b613a7c85826139fe565b865550613ae4565b601f198416613a928661386e565b60005b82811015613aba57848901518255600182019150602085019450602081019050613a95565b86831015613ad75784890151613ad3601f8916826139e0565b8355505b6001600288020188555050505b505050505050565b7f5061636b61676520686173206578706972656400000000000000000000000000600082015250565b6000613b22601383612979565b9150613b2d82613aec565b602082019050919050565b60006020820190508181036000830152613b5181613b15565b9050919050565b7f496e73756666696369656e74207061796d656e74000000000000000000000000600082015250565b6000613b8e601483612979565b9150613b9982613b58565b602082019050919050565b60006020820190508181036000830152613bbd81613b81565b9050919050565b7f43616e6e6f7420627579206f776e207061636b61676500000000000000000000600082015250565b6000613bfa601683612979565b9150613c0582613bc4565b602082019050919050565b60006020820190508181036000830152613c2981613bed565b9050919050565b6000613c3b82612a20565b9150613c4683612a20565b9250828203905081811115613c5e57613c5d613598565b5b92915050565b600081905092915050565b6000613c7a8261296e565b613c848185613c64565b9350613c9481856020860161298a565b80840191505092915050565b6000613cac8285613c6f565b9150613cb88284613c6f565b91508190509392505050565b7f4f776e61626c653a206e6577206f776e657220697320746865207a65726f206160008201527f6464726573730000000000000000000000000000000000000000000000000000602082015250565b6000613d20602683612979565b9150613d2b82613cc4565b604082019050919050565b60006020820190508181036000830152613d4f81613d13565b9050919050565b7f4552433732313a207472616e736665722066726f6d20696e636f72726563742060008201527f6f776e6572000000000000000000000000000000000000000000000000000000602082015250565b6000613db2602583612979565b9150613dbd82613d56565b604082019050919050565b60006020820190508181036000830152613de181613da5565b9050919050565b7f4552433732313a207472616e7366657220746f20746865207a65726f2061646460008201527f7265737300000000000000000000000000000000000000000000000000000000602082015250565b6000613e44602483612979565b9150613e4f82613de8565b604082019050919050565b60006020820190508181036000830152613e7381613e37565b9050919050565b7f4f776e61626c653a2063616c6c6572206973206e6f7420746865206f776e6572600082015250565b6000613eb0602083612979565b9150613ebb82613e7a565b602082019050919050565b60006020820190508181036000830152613edf81613ea3565b9050919050565b7f4552433732313a20617070726f766520746f2063616c6c657200000000000000600082015250565b6000613f1c601983612979565b9150613f2782613ee6565b602082019050919050565b60006020820190508181036000830152613f4b81613f0f565b9050919050565b7f5265656e7472616e637947756172643a207265656e7472616e742063616c6c00600082015250565b6000613f88601f83612979565b9150613f9382613f52565b602082019050919050565b60006020820190508181036000830152613fb781613f7b565b9050919050565b7f4552433732313a207472616e7366657220746f206e6f6e20455243373231526560008201527f63656976657220696d706c656d656e7465720000000000000000000000000000602082015250565b600061401a603283612979565b915061402582613fbe565b604082019050919050565b600060208201905081810360008301526140498161400d565b9050919050565b7f4e487b7100000000000000000000000000000000000000000000000000000000600052601260045260246000fd5b600081519050919050565b600082825260208201905092915050565b60006140a68261407f565b6140b0818561408a565b93506140c081856020860161298a565b6140c9816129b4565b840191505092915050565b60006080820190506140e96000830187612ab5565b6140f66020830186612ab5565b6141036040830185612bcb565b8181036060830152614115818461409b565b905095945050505050565b60008151905061412f816128df565b92915050565b60006020828403121561414b5761414a6128a9565b5b600061415984828501614120565b91505092915050565b7f4552433732313a206d696e7420746f20746865207a65726f2061646472657373600082015250565b6000614198602083612979565b91506141a382614162565b602082019050919050565b600060208201905081810360008301526141c78161418b565b9050919050565b7f4552433732313a20746f6b656e20616c7265616479206d696e74656400000000600082015250565b6000614204601c83612979565b915061420f826141ce565b602082019050919050565b60006020820190508181036000830152614233816141f7565b905091905056fea26469706673582212207058324ffd733862baca8c599c7ebd2334c5b5c00c4205908d3492b4112b4edc64736f6c63430008110033",
  "linkReferences": {},
  "deployedLinkReferences": {}
}